S00E000042757A7A65722E7372656394
S113000045C0000053C0000051C000004FC00000B4
S11300104DC000004BC0000049C0000047C00000B4
S113002045C0000043C0000041C000003FC00000C4
S11300303DC000003BC0000039C0000038C00000D3
S113004035C0000033C0000031C000002FC00000E4
S11300502DC000002BC0000029C0000027C00000F4
S113006025C0000023C0000021C000001FC0000004
S11300701DC000001BC0000019C0000017C0000014
S113008015C0000013C0000011C0000011241FBEE1
S1130090CFEFD0E1DEBFCDBF21E0A0E0B1E001C0F1
S11300A01D92A830B207E1F746D06DC0A9CF1F92C8
S11300B00F920FB60F9211248F939F93AF93BF9318
S11300C08091040190910501A0910601B09107016E
S11300D00196A11DB11D8093040190930501A09385
S11300E00601B09307018091000190910101A09154
S11300F00201B0910301892B8A2B8B2B99F08091FB
S1130100000190910101A0910201B09103010197B6
S1130110A109B1098093000190930101A093020108
S1130120B0930301BF91AF919F918F910F900FBE38
S11301300F901F901895BC9A83B7886083BF83B7CC
S1130140866083BF87B7826087BF789446E450E0B7
S113015060E070E020E18091000190910101A091A4
S11301600201B0910301892B8A2B8B2BA1F74093B9
S1130170000150930101609302017093030188B35D
S10D0180822788BBE8CFF894FFCF74
S9030000FC
