:100000000C9446000C945D000C945D000C945D0013
:100010000C945D000C945D000C945D000C945D00EC
:100020000C945D000C945D000C945D000C945D00DC
:100030000C945D000C945D000C945D000C945D00CC
:100040000C945D000C945D000C945D000C945D00BC
:100050000C945D000C945D000C945D000C945D00AC
:100060000C945D000C945D000C945D000C945D009C
:100070000C945D000C945D000C945D000C945D008C
:100080000C945D000C945D000C945D0011241FBE67
:10009000CFEFD0E1DEBFCDBF11E0A0E0B1E0E0EAFC
:1000A000F1E000E00BBF02C007900D92A030B10755
:1000B000D9F70E945F000C94CE000C940000DF93EF
:1000C000CF93CDB7DEB780E090E068E070E00E94AB
:1000D0006E0081E490E00E94A800FBCFDF93CF93F5
:1000E00000D00F92CDB7DEB789837B836A83898185
:1000F000882399F4AAE2B0E0EAE2F0E08081886126
:100100008C93E0E9F0E08A819B81892F9927808395
:10011000E9E2F0E08A81808315C08981813091F421
:10012000AAE9B0E0EAE9F0E0808188618C93E8E92F
:10013000F0E08A819B81892F99278083E9E9F0E0AB
:100140008A8180830F900F900F90CF91DF91089557
:10015000DF93CF930F92CDB7DEB78983EBE2F0E068
:100160008081882F90E0807290700097B9F3ECE264
:10017000F0E0898180830F90CF91DF910895DF9324
:10018000CF93CDB7DEB7EBE2F0E080818823DCF7D8
:10019000ECE2F0E08081CF91DF910895F894FFCFF9
:00000001FF
