:100000000C9446000C945D000C945D000C945D0013
:100010000C945D000C945D000C945D000C945D00EC
:100020000C945D000C945D000C945D000C945D00DC
:100030000C945D000C945D000C945D000C945D00CC
:100040000C945D000C945D000C945D000C945D00BC
:100050000C945D000C945D000C945D000C945D00AC
:100060000C945D000C945D000C945D000C945D009C
:100070000C945D000C945D000C945D000C945D008C
:100080000C945D000C945D000C945D0011241FBE67
:10009000CFEFD0E1DEBFCDBF11E0A0E0B1E0E0E501
:1000A000F1E000E00BBF02C007900D92A030B10755
:1000B000D9F70E945F000C94A6000C940000DF9317
:1000C000CF93CDB7DEB7EAE3F0E081E88083E7E3E2
:1000D000F0E08FEF8083E8E3F0E080E88083E9E3FD
:1000E000F0E080818823A4F4E8E3F0E081E08083FD
:1000F000A8E3B0E0E8E3F0E08081282F30E081E081
:1001000090E0022E02C0880F991F0A94E2F78C93A8
:10011000E9E3F0E08081882F90E08170907088237F
:10012000F1F2E8E3F0E080E88083A8E3B0E0E8E300
:10013000F0E08081282F30E081E090E0022E02C0C4
:10014000959587950A94E2F78C93C9CFF894FFCFE1
:00000001FF
