:100000000C9446000C945D000C945D000C945D0013
:100010000C945D000C945D000C945D000C945D00EC
:100020000C945D000C945D000C945D000C945D00DC
:100030000C945D000C945D000C945D000C945D00CC
:100040000C945D000C945D000C945D000C945D00BC
:100050000C945D000C945D000C945D000C945D00AC
:100060000C945D000C945D000C945D000C945D009C
:100070000C945D000C945D000C945D000C945D008C
:100080000C945D000C945D000C945D0011241FBE67
:10009000CFEFD0E1DEBFCDBF11E0A0E0B1E0E4E5FD
:1000A000F1E000E00BBF02C007900D92A030B10755
:1000B000D9F70E945F000C94A8000C940000DF9315
:1000C000CF93CDB7DEB7EAE3F0E081E88083E7E3E2
:1000D000F0E08FEF8083E8E3F0E080E88083E9E3FD
:1000E000F0E080818823ACF4E8E3F0E080818038A0
:1000F00081F0A8E3B0E0E8E3F0E08081282F30E071
:1001000081E090E0022E02C0880F991F0A94E2F766
:100110008C93E9E3F0E08081882F90E0817090700B
:100120008823E9F2E8E3F0E080818130C1F2A8E3BE
:10013000B0E0E8E3F0E08081282F30E081E090E05B
:10014000022E02C0959587950A94E2F78C93C7CF4B
:04015000F894FFCF51
:00000001FF
